:020000040000FA
:100000000C9472000C949A000C949A000C949A0030
:100010000C949A000C949A000C949A000C949A00F8
:100020000C949A000C949A000C949A000C949A00E8
:100030000C949A000C949A000C949A000C949A00D8
:100040000C9407090C949A000C9477090C945109AC
:100050000C949A000C949A000C949A000C949A00B8
:100060000C949A000C949A00005EBCE2613FDD8320
:10007000C29C7E20A3FD1F41009D23BE46DB65F888
:100080008C11AF32CA57E974000000002400270029
:100090002A0000000000250028002B0000000008B6
:1000A000000201000003040700000000000000003F
:1000B00000000000230026002900040404040404B6
:1000C0000404020202020202030303030303010207
:1000D00004081020408001020408102001020408D6
:1000E0001020A90911241FBECFEFD8E0DEBFCDBF7D
:1000F00011E0A0E0B1E0E4EAF2E202C005900D9266
:10010000A439B107D9F722E0A4E9B1E001C01D92FA
:10011000A737B207E1F710E0C2E7D0E004C02197AB
:10012000FE010E944A11C137D107C9F70E943F0A58
:100130000C9450110C94000090E0FC01E456FF4F29
:100140002491FC01E253FF4F3491FC01E654FF4F30
:10015000E491EE23C9F0222339F0233001F1A8F411
:10016000213019F1223029F1F0E0EE0FFF1FEE5699
:10017000FF4FA591B4918FB7F894EC91611126C00F
:1001800030953E233C938FBF08952730A9F0283047
:10019000C9F0243049F7809180008F7D03C08091A1
:1001A00080008F7780938000DFCF84B58F7784BD08
:1001B000DBCF84B58F7DFBCF8091B0008F778093AC
:1001C000B000D2CF8091B0008F7DF9CF3E2BDACF37
:1001D000CF93DF9390E0FC01E253FF4F24918654CC
:1001E0009F4FFC0184918823D1F090E0880F991FE4
:1001F000FC01E857FF4FA591B491FC01EE56FF4F6B
:10020000C591D49161110EC09FB7F8948C91E22FE3
:10021000E0958E238C932881E223E8839FBFDF91B2
:10022000CF9108958FB7F894EC91E22BEC938FBFA8
:10023000F6CF3FB7F8948091990190919A01A091DF
:100240009B01B0919C0126B5A89B05C02F3F19F0DA
:100250000196A11DB11D3FBFBA2FA92F982F882746
:10026000BC01CD01620F711D811D911D42E0660F21
:10027000771F881F991F4A95D1F708958F929F92F3
:10028000AF92BF92CF92DF92EF92FF926B017C010F
:100290000E9419014B015C01C114D104E104F10475
:1002A000B9F00E941901681979098A099B09683E09
:1002B00073408105910580F321E0C21AD108E1085D
:1002C000F10888EE880E83E0981EA11CB11CE4CFD3
:1002D000FF90EF90DF90CF90BF90AF909F908F9066
:1002E0000895AF92BF92CF92DF92EF92FF920F9359
:1002F0001F93CF93DF936C017B018B01040F151FBC
:10030000EB015E01AE18BF08C017D10759F0699123
:10031000D601ED91FC910190F081E02DC601099587
:10032000892B79F7C501DF91CF911F910F91FF9034
:10033000EF90DF90CF90BF90AF900895FC01538D68
:10034000448D252F30E0842F90E0821B930B5417AF
:1003500010F0CF96089501970895FC01918D828D3C
:10036000981761F0A28DAE0FBF2FB11D5D968C91D5
:10037000928D9F5F9F73928F90E008958FEF9FEF14
:100380000895FC01918D828D981731F0828DE80FD0
:10039000F11D858D90E008958FEF9FEF0895FC018A
:1003A000918D228D892F90E0805C9F4F821B910957
:1003B0008F73992708958DE991E00E94CF0121E084
:1003C000892B09F420E0822F089580E090E0892BAA
:1003D00029F00E94DB0181110C9400000895FC01BA
:1003E000A48DA80FB92FB11DA35ABF4F2C91848D96
:1003F00090E001968F739927848FA689B7892C93F3
:10040000A089B1898C91837080648C93938D848D45
:10041000981306C00288F389E02D80818F7D808348
:100420000895EF92FF920F931F93CF93DF93EC0108
:1004300081E0888F9B8D8C8D98131AC0E889F9898B
:10044000808185FF15C09FB7F894EE89FF8960838E
:10045000E889F98980818370806480839FBF81E00F
:1004600090E0DF91CF911F910F91FF90EF90089551
:10047000F62E0B8D10E00F5F1F4F0F731127E02E2C
:100480008C8D8E110CC00FB607FCFACFE889F98964
:10049000808185FFF5CFCE010E94EF01F1CFEB8D7A
:1004A000EC0FFD2FF11DE35AFF4FF0829FB7F89438
:1004B0000B8FEA89FB8980818062CFCFCF93DF9356
:1004C000EC01888D8823B9F0AA89BB89E889F9896C
:1004D0008C9185FD03C0808186FD0DC00FB607FCA1
:1004E000F7CF8C9185FFF2CF808185FFEDCFCE01D4
:1004F0000E94EF01E9CFDF91CF910895089590E038
:1005000080E00895DC0180E0615090F09D91982793
:10051000E92FEF70F0E0E859FF4F2491E92FE295C1
:10052000EF70F0E0E858FF4FE491822F8E27ECCF78
:100530000895DC012C911196ED91FC91F894818144
:10054000822B81839281322F30959323928387E08F
:1005500090E00197F1F781818323818383E290E02A
:100560000197F1F790817894EFECF0E03197F1F793
:10057000922381E009F480E00895FC0190810180DC
:10058000F281E02D292F209560FF14C0F89482811C
:10059000822382838181892B8183A3E2B0E011973A
:1005A000F1F78281982B9283789487ED90E0019700
:1005B000F1F70895F8948281822382838181892BC7
:1005C0008183AFEFB0E01197F1F78281982B92838E
:1005D00078948FE090E0EBCFDF92EF92FF920F9351
:1005E0001F93CF93DF93EC01D62EE42E08E010E0AA
:1005F000FF24F39461E08D2D8F2109F460E0CE019A
:100600000E94BD02FF0C01501109A1F7E11010C0BA
:10061000F894E981FA819181888180958923818389
:10062000E981FA81928188818095892382837894F7
:10063000DF91CF911F910F91FF90EF90DF90089580
:10064000EF92FF920F931F93CF93DF938C017B0167
:1006500040E065E50E94EC02E70188E0E80EF11C4D
:10066000699140E0C8010E94EC02CE15DF05C1F798
:10067000DF91CF911F910F91FF90EF900895FC01B2
:1006800090810180F281E02DF8948181292F2095BD
:100690008223818378943DE743E050E0315029F193
:1006A000DA011197F1F780818923C1F3F8948281EF
:1006B000822382838181892B81837894ABE7B7E0A1
:1006C0001197F1F7F894818182238183A3E1B1E04E
:1006D0001197F1F78081982381E009F080E0789408
:1006E000E3E6F6E03197F1F7089580E008956F9220
:1006F0007F928F929F92AF92BF92CF92DF92EF92B2
:10070000FF920F931F93CF93DF938C01EB018091A6
:100710005B0290915C020E943F03882309F43FC072
:10072000B80180915B0290915C020E94200340E03E
:100730006EEB80915B0290915C020E94EC027E0164
:100740006E0189E0C80ED11C8E01A0905B02B090B2
:100750005C0288E0882E912C712C66246394C5017C
:100760000E94990281117628660CE1E08E1A9108A8
:10077000B1F7F80171928F01CE16DF0631F7809143
:100780005B0290915C020E943F03813041F4F701CB
:1007900081917F01811105C0E017F107C1F790E059
:1007A00008C068E0CE010E94820291E028852813EB
:1007B000F6CF892FDF91CF911F910F91FF90EF908E
:1007C000DF90CF90BF90AF909F908F907F906F9071
:1007D00008950F931F93CF93DF93CDB7DEB729977B
:1007E0000FB6F894DEBF0FBECDBF8C01BE016F5FA8
:1007F0007F4F0E947703882361F08D81F8019081FB
:100800009B3311F487FD0BC08F3359F020F48F31E7
:10081000A1F080E007C08F3591F08F37D1F78CE0E1
:1008200001C08AE029960FB6F894DEBF0FBECDBF97
:10083000DF91CF911F910F91089589E0F3CF8BE065
:10084000F1CFCF92DF92EF92FF920F931F93CF934E
:10085000DF93CDB7DEB729970FB6F894DEBF0FBE92
:10086000CDBF8C01BE016F5F7F4F0E947703811166
:1008700005C060E070E08EEF92EC4EC08A81C12C22
:10088000D12C760187FF06C0C12CD12CF8EFEF2EBA
:10089000FF24FA94F801908149819B3309F04BC001
:1008A0002D8127FF48C040FDE4CF042F10E030E049
:1008B00020E073E0000F111F221F331F7A95D1F73C
:1008C000B901A801407E57706627772790E0B0E015
:1008D000A0E08C019D01EBE0000F111F221F331FD0
:1008E000EA95D1F7042B152B262B372B0C291D2924
:1008F0002E293F29013854EE15075FEF25073507EC
:100900000CF4B7CFC901B8010E947E0F20E030E09F
:1009100040E05CE30E94331029960FB6F894DEBFE6
:100920000FBECDBFDF91CF911F910F91FF90EF9040
:10093000DF90CF900895082F10E0102F0027110F9F
:10094000110F110FF8E04F9FA0011124042B152B5C
:10095000012E000C220B330B0C291D292E293F29B7
:10096000903141F66885662329F270E08F81AB01F2
:10097000481B5109CA019695982F88279795879506
:100980000E940011CB01770FAA0BBB0B53E0000FA5
:10099000111F221F331F5A95D1F700782770332774
:1009A0000052110921093109800F911FA21FB31FA5
:1009B00097018601082B192B2A2B3B2B9BCFBF922B
:1009C000CF92DF92EF92FF920F931F93CF93DF931B
:1009D000EC01B62EC72E8D85811105C0CE010E9477
:1009E0003F0381110EC01B861D861C8680E0DF91AF
:1009F000CF911F910F91FF90EF90DF90CF90BF901C
:100A0000089540E060EFCE010E94EC0201E0E12C8D
:100A1000D12C11E0CE010E949902F82ECE010E9445
:100A2000990291E0F91218C0813099F51134D8F289
:100A3000DB86D11002C081E08D878B81882399F2FB
:100A40002396EB2DFC2DCF01089629912193E817D1
:100A5000F907D9F781E0CBCFEE2DF0E0F8120FC007
:100A60008B851817A0F4DE01AE0FBF1F13968C9173
:100A7000802379F4F12C193008F41C87D12EEC0F67
:100A8000FD1F8381902F9095892383830AC0811352
:100A9000F1CFFE01EE0DF11D8381802B8383FF24B6
:100AA000F3946F2DCE010E94BD021F5F000F11F461
:100AB000E39401E087E08E1508F0ACCFB7CF0F9339
:100AC0001F93CF93DF93CDB7DEB729970FB6F89476
:100AD000DEBF0FBECDBF8C01FC018081803109F4E7
:100AE0006CC0BE016F5F7F4FC8010E9477038823EF
:100AF00009F4C3C08D818F3709F45FC08FE78D8300
:100B000080915B0290915C020E943F03B80180914A
:100B10005B0290915C020E94200340E06EE48091B1
:100B20005B0290915C020E94EC0240E06B8180913C
:100B30005B0290915C020E94EC0240E06C8180912B
:100B40005B0290915C020E94EC02F801808180318E
:100B500041F040E06D8180915B0290915C020E94C7
:100B6000EC0280915B0290915C022091580222235A
:100B700011F10E943F03882301F1B80180915B02CB
:100B800090915C020E9420034091520268E480919F
:100B90005B0290915C020E94EC02809152028111F2
:100BA0004FC064E170E080E090E00E943E018091DF
:100BB0005B0290915C020E943F038CE0809355029F
:100BC00080915902823008F457C0E0915B02F091A5
:100BD0005C0213861586148612861186108617828B
:100BE000168215821482138210E080915902181720
:100BF00008F042C0809155028C30F1F1BE016F5F68
:100C00007F4F80915B0290915C020E94DF048823F9
:100C1000A9F067E0CE0101960E94820298858913AF
:100C20000DC08981803131F1CE0101960E94E90326
:100C300090915502981710F4809355021F5FD5CFFD
:100C400080915302882329F060E0809154020E9431
:100C50009C0064E170E080E090E00E943E018091A1
:100C60005302882309F4A3CF61E0809154020E94CB
:100C70009C009DCF8CE0DCCF81E029960FB6F894E4
:100C8000DEBF0FBECDBFDF91CF911F910F910895B1
:100C9000CF93DF93EC0160E08E810E949C0061E0C5
:100CA0008E810E949C0060E08E810E949C008BE8F7
:100CB00091E00197F1F7DF91CF910895CF92DF9204
:100CC000EF92FF920F931F93CF93DF936C017C0100
:100CD00087E0E80EF11CD0E0C0E0062F10E0B8017C
:100CE0000C2E02C0759567950A94E2F76170F701C2
:100CF00081917F010E949C002196C430D10579F733
:100D0000C601DF91CF911F910F91FF90EF90DF907F
:100D1000CF900C944806CF92DF92EF92FF920F9300
:100D20001F93CF93DF93EC01F62E642F8C810E94EA
:100D30009C008D818F3F19F060E00E949C000F2D78
:100D400010E08F8584FF25C06E0187E0C80ED11C9E
:100D5000F12CE12CB8010E2C02C0759567950A9410
:100D6000E2F76170F60181916F010E949C00FFEF34
:100D7000EF1AFF0A88E0E816F10461F7CE01DF916F
:100D8000CF911F910F91FF90EF90DF90CF900C9437
:100D90004806B80184E0759567958A95E1F7CE011C
:100DA0000E945E066F2DCE01DF91CF911F910F91B2
:100DB000FF90EF90DF90CF900C945E0640E0682F9C
:100DC0008AE392E00C948B06EAE3F2E08089982FA4
:100DD0009460908B8C600C94DE06CF93DF9361302F
:100DE00029F09091490298609093490260934D02D6
:100DF00010924E0290E490934F0280935002805CD8
:100E00008093510261E080913E020E94E80080914F
:100E10003F028F3F19F061E00E94E80061E080919D
:100E200040020E94E800CAE3D2E09E012A53324009
:100E30008091490284FD0BC084E090E02196281740
:100E4000390744F461E08E810E94E800EECF88E02B
:100E500090E0F4CF8BE39DE00197F1F760E08091A3
:100E60003E020E949C0060E0809140020E949C0033
:100E700080913F028F3F19F060E00E949C008091BA
:100E8000490284FD38C063E08AE392E00E945E0676
:100E9000CBE4D6E4CE010197F1F763E08AE392E078
:100EA0000E945E062197F1F763E08AE392E00E94D8
:100EB0005E0683E592E00197F1F762E08AE392E053
:100EC0000E945E068091490280620E94DE0684E0F4
:100ED00080934A020E94E40681E00E94DE068BE3D2
:100EE0009FE10197F1F782E080934B0286E0DF916A
:100EF000CF910C94DE0680620E94DE068BE496E4BD
:100F00000197F1F78091490280620E94DE0683E535
:100F100092E00197F1F78091490280620E94DE061B
:100F2000D1CF90914D02691710F06FEF690FE62F46
:100F3000F0E0E65CFD4F9489890F80680C94DE0632
:100F400041E00E948B0681E090E00895FB01019052
:100F50000020E9F73197AF01461B570BDC01ED91FB
:100F6000FC910280F381E02D09948F929F92AF92C1
:100F7000BF92EF92FF920F931F93CF93DF93CDB762
:100F8000DEB7A1970FB6F894DEBF0FBECDBF7C01D0
:100F9000FA01CB0119A2223008F42AE08E010F5D7C
:100FA0001F4F822E912CB12CA12CBF01A5019401C1
:100FB0000E941411F901CA016A300CF5605DD80174
:100FC0006E938D01232B242B252B79F790E080E065
:100FD000109721F0BD01C7010E94A607A1960FB688
:100FE000F894DEBF0FBECDBFDF91CF911F910F915F
:100FF000FF90EF90BF90AF909F908F900895695CA5
:10100000DECFCF93DF93BC018DE991E00E94A6076C
:10101000EC0164E471E08DE991E00E94A6078C0F79
:101020009D1FDF91CF9108954F925F926F927F92B3
:101030008F929F92AF92BF92EF92FF920F931F9366
:10104000CF93DF93EC014A015B01E22EAB019401E7
:10105000CB01B4010E94E61067E471E0811126C063
:1010600024013501E89477F82FEF3FEF4FE75FE772
:10107000C301B2010E94E61081110CC02FEF3FEFB7
:101080004FE75FE7C301B2010E94D60E6BE471E047
:10109000181664F02FEF3FEF4FE75FE4C501B4018E
:1010A0000E942E1018169CF46FE471E0CE01DF91BF
:1010B000CF911F910F91FF90EF90BF90AF909F90B5
:1010C0008F907F906F905F904F900C94A6072FEFBA
:1010D0003FEF4FE75FECC501B4010E94D60E87FDDC
:1010E000E3CF20E030E0A901C501B4010E94D60E93
:1010F00010E000E087FF0DC0E881F9810190F081E8
:10110000E02D6DE2CE0109958C01B7FAB094B7F8E5
:10111000B094FE2C712C60E070E080E09FE37E14C0
:1011200040F420E030E040E251E40E94DB0E739492
:10113000F6CFA50194010E946A0E4B015C010E944A
:101140004D0F2B013C012AE0BC01A201CE010E94FF
:10115000B507080F191FEE20F1F1C301B2010E947B
:101160007C0F9B01AC01C501B4010E94690E4B01CB
:101170005C01E881F9810190F081E02D6EE2CE0101
:101180000995080F191FFA948FEFF81621F120E046
:1011900030E040E251E4C501B4010E9433102B015C
:1011A0003C010E944D0F4B01B12CA12C2AE0B5014E
:1011B000A401CE010E94B507080F191FC501B40193
:1011C0000E947C0F9B01AC01C301B2010E94690E19
:1011D0004B015C01D8CFC801DF91CF911F910F91D6
:1011E000FF90EF90BF90AF909F908F907F906F9007
:1011F0005F904F9008950E942104AB01BC0122E052
:1012000030E08DE991E00C9414080C94A6071F922D
:101210000F920FB60F9211242F933F938F939F93AA
:10122000AF93BF938091950190919601A091970102
:10123000B09198013091940123E0230F2D3758F598
:101240000196A11DB11D2093940180939501909367
:101250009601A0939701B093980180919901909184
:101260009A01A0919B01B0919C010196A11DB11D15
:101270008093990190939A01A0939B01B0939C0154
:10128000BF91AF919F918F913F912F910F900FBE82
:101290000F901F90189526E8230F0296A11DB11DEF
:1012A000D2CF1F920F920FB60F9211242F933F931C
:1012B0004F935F936F937F938F939F93AF93BF935E
:1012C000EF93FF938DE991E00E94EF01FF91EF9181
:1012D000BF91AF919F918F917F916F915F914F914E
:1012E0003F912F910F900FBE0F901F9018951F9256
:1012F0000F920FB60F9211242F938F939F93EF931A
:10130000FF93E091AD01F091AE018081E091B301D6
:10131000F091B40182FD1BC090818091B6018F5F76
:101320008F732091B701821741F0E091B601F0E090
:10133000E356FE4F958F8093B601FF91EF919F91F9
:101340008F912F910F900FBE0F901F901895808155
:10135000F4CFEDE9F1E01382128288EE93E0A0E091
:10136000B0E084839583A683B7838AE291E091837A
:10137000808385EC90E09587848784EC90E0978764
:10138000868780EC90E0918B808B81EC90E0938B52
:10139000828B82EC90E0958B848B86EC90E0978B2F
:1013A000868B118E128E138E148E60E088E00E9460
:1013B000E800E6EDF0E0E491A9E6B2E0EC93E2ECBF
:1013C000F0E0E491F0E0EE0FFF1FE055FF4F859154
:1013D000949112969C938E9311971B961C921B9737
:1013E0001D961C921D971C961C921C971A961C9277
:1013F0001A9719961C92199718961C921897179677
:101400001C92179716961C92169715961C92159774
:1014100014961C92149713961C921397E2E5F2E02F
:1014200017821086108289E0838381E0848385831C
:1014300086831182168A158A8FEF838B148AB2876E
:10144000A187EAE3F2E0138212822CE331E03183D8
:10145000208392E09483858383E0868387E087837B
:1014600086E0808785E0818784E082871386148602
:1014700015861686178661E080E10C94ED06CF9301
:10148000DF93CDB7DEB76C970FB6F894DEBF0FBE13
:10149000CDBF789484B5826084BD84B5816084BDFD
:1014A00085B5826085BD85B5816085BD80916E0002
:1014B000816080936E001092810080918100826033
:1014C0008093810080918100816080938100809170
:1014D00080008160809380008091B100846080935F
:1014E000B1008091B00081608093B00080917A005B
:1014F000846080937A0080917A00826080937A0081
:1015000080917A00816080937A0080917A0080686F
:1015100080937A001092C100E091AD01F091AE018C
:1015200082E08083E091A901F091AA011082E0910C
:10153000AB01F091AC018FEC80831092B501E0918A
:10154000B101F091B20186E08083E091AF01F091AA
:10155000B001808180618083E091AF01F091B001A2
:10156000808188608083E091AF01F091B00180813B
:1015700080688083E091AF01F091B00180818F7D20
:10158000808361E08DE00E94E80060E08DE00E94D1
:101590009C0013E001E0E0915B02F0915C02138695
:1015A0001586148612861186108617821682158279
:1015B000148213821092590210925A0262E370E070
:1015C00080E090E00E943E01BE016F5F7F4F8091FE
:1015D0005B0290915C020E94DF04882309F45FC0E3
:1015E00067E0CE0101960E94820298858913ECCFB4
:1015F000809159028F5F809359028981883231F03E
:1016000008F044C0803111F08232F1F680915A0224
:101610008F5F80935A0280915202811128C080917D
:101620005B0290915C020E943F03BE016F5F7F4F9F
:1016300080915B0290915C020E94200340E064EB89
:1016400080915B0290915C020E94EC0280915B02AF
:1016500090915C020E949902F82E80915B02909119
:101660005C020E943F03F11002C000935202898184
:10167000803199F0CE0101960E94E90390915502C4
:10168000981708F0A1CF809355029ECF8B3309F4B1
:10169000BDCF823409F098CFB9CF8CE0EFCF8091E5
:1016A0005902811103C0115009F075CF88E191E012
:1016B0000E945F0580E191E00E945F0588E091E073
:1016C0000E945F0580E091E00E945F0564E084E194
:1016D0000E94ED0680915B0290915C020E943F03A4
:1016E00040E06CEC80915B0290915C020E94EC0205
:1016F0004091520264E480915B0290915C020E94EE
:10170000EC028FB7F894C0909501D0909601E090CC
:101710009701F09098018FBF80915602882329F19C
:1017200080915702882309F487C280915202811167
:1017300083C280915B0290915C020E949902813089
:10174000A1F02FB7F8948091950190919601A09106
:101750009701B09198012FBF8C199D09AE09BF095F
:101760008E3E9240A105B10520F388E191E00E94F0
:10177000FB0863E571E08DE991E00E94050980E1D5
:1017800091E00E94FB0863E571E08DE991E00E9421
:10179000050988E091E00E94FB0863E571E08DE9AE
:1017A00091E00E94050980E091E00E94FB0863E55A
:1017B00071E08DE991E00E94050988E191E00E94C5
:1017C00021043B014C0180E191E00E9421046987E2
:1017D0007A878B879C8788E091E00E9421045B01D7
:1017E0006C0180E091E00E942104E62E272E382E25
:1017F000492E29853A854B855C85B301C4010E9439
:10180000690E9B01AC010E9433100E94A6106D87E7
:101810007E878F87988B2E2D322D432D542DB50129
:10182000C6010E94690E9B01AC010E9433100E9408
:10183000A610698B7A8B8B8B9C8B9B01AC016D8581
:101840007E858F8598890E942E1018160CF01DC277
:101850008D85898F9E859A8F2F852B8F88898C8F78
:1018600029853A854B855C85B301C4010E942E1001
:1018700018160CF013C26D8A7E8A8F8A988E2E2DD0
:10188000322D432D542DB501C6010E942E105A2C25
:10189000FB2C8601181624F05E2CF22C032D142D3F
:1018A000252D3F2DA8016D897E898F89988D0E94F5
:1018B0002E10181624F45D88FE880F89188D22E0FA
:1018C00030E04D855E856F8578898DE991E00E94D5
:1018D000140863E571E08DE991E00E94050922E0BA
:1018E00030E049895A896B897C898DE991E00E94B1
:1018F000140863E571E08DE991E00E94050920E09C
:1019000030E040E850E4698D7A8D8B8D9C8D0E948B
:101910002E1018160CF0CBC185E591E00E9401084D
:1019200061E08AE00E949C0020E030E044E052E464
:10193000652D7F2DC8010E942E1018160CF0BDC118
:1019400088E691E00E94010861E08DE00E949C0021
:1019500060E080E00E94910763E871E08AE392E032
:101960000E94050960E080E00E94910730E020E0DD
:10197000A301B4018AE392E00E94140866E871E0D2
:101980008AE392E00E94050964E871E08AE392E04C
:101990000E94050960E088E00E94910763E871E019
:1019A0008AE392E00E94050960E088E00E949107C6
:1019B00030E020E049855A856B857C858AE392E09A
:1019C0000E94140866E871E08AE392E00E9405092B
:1019D00061E083E00E94910768E871E08AE392E0A9
:1019E0000E94050961E085E00E94910763E871E0CB
:1019F0008AE392E00E94050961E085E00E94910778
:101A000030E020E04D855E856F8578898AE392E03D
:101A10000E94140861E087E00E94910766E871E087
:101A20008AE392E00E94050962E083E00E94910748
:101A30006AE871E08AE392E00E94050962E085E0CD
:101A40000E94910763E871E08AE392E00E94050931
:101A500062E085E00E94910730E020E049895A89E0
:101A60006B897C898AE392E00E94140862E087E037
:101A70000E94910766E871E08AE392E00E940509FE
:101A800063E080E00E94910730E020E0A501B6010C
:101A90008AE392E00E94140866E871E08AE392E02B
:101AA0000E94050963E871E08AE392E00E9405095B
:101AB00063E088E00E94910763E871E08AE392E0C6
:101AC0000E94050963E088E00E94910730E020E071
:101AD0004E2D522D632D742D8AE392E00E9414083E
:101AE00066E871E08AE392E00E94050960E080E127
:101AF0000E9491076CE871E08AE392E00E94050978
:101B000061E080E10E94910763E871E08AE392E07E
:101B10000E94050961E080E10E94910730E020E029
:101B2000A501B6018AE392E00E94140866E871E01C
:101B30008AE392E00E94050962E080E10E94910739
:101B400060E971E08AE392E00E94050963E080E1C8
:101B50000E94910763E871E08AE392E00E94050920
:101B600063E080E10E94910730E020E04E2D522D8D
:101B7000632D742D8AE392E00E94140866E871E0F8
:101B80008AE392E00E94050920E030E040E850E45A
:101B9000698D7A8D8B8D9C8D0E942E1018160CF0FD
:101BA00092C080914A028B7F80934A0288600E9493
:101BB000DE066CE271E080E090E00E943E010E944F
:101BC000E40664EF71E080E090E00E943E0120E0D6
:101BD00030E044E052E4652D7F2DC8010E942E10B4
:101BE00018160CF073C080914A028B7F80934A02D2
:101BF00088600E94DE066CE271E080E090E00E9466
:101C00003E010E94E40664EF71E080E090E00E94F3
:101C10003E0168EE73E080E090E00E943E0180E0CB
:101C200090E0892B09F456CD0E94DB01882309F44A
:101C300051CD0E9400004ECDE0915502E9508EEE4C
:101C400092E0E33038F4F0E0EE0FFF1FE05EFE4F6D
:101C5000808191816C01F12CE12C809153028823C9
:101C600029F060E0809154020E949C00C701B601F7
:101C70000E943E0180915302882309F476CD61E0F1
:101C8000809154020E949C0070CD9989998F2A8975
:101C90002A8F8B898B8F9C899C8FE2CD29852D8BF8
:101CA0008A858E8B9B859F8B2C85288FE8CD8FE531
:101CB00091E00E94010860E034CE86E791E00E9446
:101CC000010860E042CE0E94E40681CF0E94E40653
:101CD000A0CF5058BB27AA270E94810E0C94F40F66
:101CE0000E94E60F38F00E94ED0F20F039F49F3F7C
:101CF00019F426F40C94E30F0EF4E095E7FB0C9432
:101D0000DD0FE92F0E94051058F3BA176207730719
:101D10008407950720F079F4A6F50C9427100EF4AB
:101D2000E0950B2EBA2FA02D0B01B90190010C01EB
:101D3000CA01A0011124FF27591B99F0593F50F403
:101D4000503E68F11A16F040A22F232F342F44275B
:101D5000585FF3CF469537952795A795F040539553
:101D6000C9F77EF41F16BA0B620B730B840BBAF023
:101D70009150A1F0FF0FBB1F661F771F881FC2F78E
:101D80000EC0BA0F621F731F841F48F487957795A2
:101D90006795B795F7959E3F08F0B0CF9395880F5C
:101DA00008F09927EE0F9795879508950E94B90F2F
:101DB00008F481E008950E94EF0E0C94F40F0E9445
:101DC000ED0F58F00E94E60F40F029F45F3F29F034
:101DD0000C94DD0F51110C9428100C94E30F0E9409
:101DE000051068F39923B1F3552391F3951B550B17
:101DF000BB27AA2762177307840738F09F5F5F4FDE
:101E0000220F331F441FAA1FA9F335D00E2E3AF01C
:101E1000E0E832D091505040E695001CCAF72BD034
:101E2000FE2F29D0660F771F881FBB1F2617370785
:101E30004807AB07B0E809F0BB0B802DBF01FF27B7
:101E400093585F4F3AF09E3F510578F00C94DD0FA8
:101E50000C9428105F3FE4F3983ED4F38695779571
:101E60006795B795F7959F5FC9F7880F911D969570
:101E7000879597F90895E1E0660F771F881FBB1FCC
:101E8000621773078407BA0720F0621B730B840B79
:101E9000BA0BEE1F88F7E09508950E940D1088F0A8
:101EA0009F5798F0B92F9927B751B0F0E1F0660F1E
:101EB000771F881F991F1AF0BA95C9F714C0B1305F
:101EC00091F00E942710B1E008950C942710672F1D
:101ED000782F8827B85F39F0B93FCCF3869577958E
:101EE0006795B395D9F73EF4909580957095619577
:101EF0007F4F8F4F9F4F0895E89409C097FB3EF4A2
:101F000090958095709561957F4F8F4F9F4F992346
:101F1000A9F0F92F96E9BB279395F69587957795C4
:101F20006795B795F111F8CFFAF4BB0F11F460FF84
:101F30001BC06F5F7F4F8F4F9F4F16C0882311F0DC
:101F400096E911C0772321F09EE8872F762F05C0F0
:101F5000662371F096E8862F70E060E02AF09A958B
:101F6000660F771F881FDAF7880F9695879597F980
:101F70000895990F0008550FAA0BE0E8FEEF16161A
:101F80001706E807F907C0F012161306E407F5076D
:101F900098F0621B730B840B950B39F40A2661F0E1
:101FA000232B242B252B21F408950A2609F4A14084
:101FB000A6958FEF811D811D089597F99F6780E891
:101FC00070E060E008959FEF80EC089500240A948B
:101FD0001616170618060906089500240A94121604
:101FE0001306140605060895092E0394000C11F437
:101FF000882352F0BB0F40F4BF2B11F460FF04C0E4
:102000006F5F7F4F8F4F9F4F089557FD9058440F3C
:10201000551F59F05F3F71F04795880F97FB991F47
:1020200061F09F3F79F08795089512161306140604
:10203000551FF2CF4695F1DF08C016161706180691
:10204000991FF1CF86957105610508940895E8946C
:10205000BB2766277727CB0197F908950E94B90F10
:1020600008F48FEF08950E9446100C94F40F0E941C
:10207000E60F38F00E94ED0F20F0952311F00C943C
:10208000DD0F0C94E30F11240C9428100E9405100E
:1020900070F3959FC1F3950F50E0551F629FF001BB
:1020A000729FBB27F00DB11D639FAA27F00DB11DD4
:1020B000AA1F649F6627B00DA11D661F829F22275D
:1020C000B00DA11D621F739FB00DA11D621F839FE4
:1020D000A00D611D221F749F3327A00D611D231FBA
:1020E000849F600D211D822F762F6A2F11249F5708
:1020F00050409AF0F1F088234AF0EE0FFF1FBB1F0B
:10210000661F771F881F91505040A9F79E3F5105C9
:1021100080F00C94DD0F0C9428105F3FE4F3983EA0
:10212000D4F3869577956795B795F795E7959F5F73
:10213000C1F7FE2B880F911D9695879597F9089505
:1021400019F416F40C94E30F0C94EB100E940D108C
:10215000B8F39923C9F3B6F39F57550B87FF0E9435
:10216000F9100024A0E640EA900180585695979512
:1021700028F4805C660F771F881F20F0261737072A
:10218000480730F4621B730B840B202931294A2B3A
:10219000A69517940794202531254A2758F7660FEE
:1021A000771F881F20F026173707480730F4620B87
:1021B000730B840B200D311D411DA09581F7B901D2
:1021C000842F9158880F9695879508950E94B90F8E
:1021D000880B990B08959F3F31F0915020F487951B
:1021E00077956795B795880F911D9695879597F97F
:1021F000089591505040660F771F881FD2F70895B9
:1022000097FB072E16F4009407D077FD09D00E94A3
:10221000361107FC05D03EF4909581959F4F0895A7
:10222000709561957F4F0895A1E21A2EAA1BBB1BE2
:10223000FD010DC0AA1FBB1FEE1FFF1FA217B30792
:10224000E407F50720F0A21BB30BE40BF50B661FA8
:10225000771F881F991F1A9469F76095709580956C
:1022600090959B01AC01BD01CF010895AA1BBB1B3A
:1022700051E107C0AA1FBB1FA617B70710F0A61B86
:10228000B70B881F991F5A95A9F780959095BC01A7
:10229000CD010895EE0FFF1F0590F491E02D0994F4
:1022A000F894FFCF2856DC98702306A628E87D5CBA
:1022B0007023067B288D30447023067228E1B9789C
:1022C000702306AE5E00BC00770100000000110222
:1022D00071019E015E02CF01AD01C101000000004D
:1022E000A00771017F027E020D0A006E616E006917
:1022F0006E66006F7666002C006469666620686909
:1023000067680064696666206F6666006D617820A4
:1023100074656D702068696768006D617820746508
:102320006D70206F6666002020004300460052005A
:08233000436162004F75740067
:107E0000112484B714BE81FFF0D085E080938100F7
:107E100082E08093C00088E18093C10086E0809377
:107E2000C20080E18093C4008EE0C9D0259A86E02C
:107E300020E33CEF91E0309385002093840096BBD3
:107E4000B09BFECF1D9AA8958150A9F7CC24DD24C4
:107E500088248394B5E0AB2EA1E19A2EF3E0BF2EE7
:107E6000A2D0813461F49FD0082FAFD0023811F036
:107E7000013811F484E001C083E08DD089C08234E0
:107E800011F484E103C0853419F485E0A6D080C0E4
:107E9000853579F488D0E82EFF2485D0082F10E0AE
:107EA000102F00270E291F29000F111F8ED06801E7
:107EB0006FC0863521F484E090D080E0DECF843638
:107EC00009F040C070D06FD0082F6DD080E0C81688
:107ED00080E7D80618F4F601B7BEE895C0E0D1E017
:107EE00062D089930C17E1F7F0E0CF16F0E7DF06D8
:107EF00018F0F601B7BEE89568D007B600FCFDCFD4
:107F0000A601A0E0B1E02C9130E011968C91119780
:107F100090E0982F8827822B932B1296FA010C0160
:107F200087BEE89511244E5F5F4FF1E0A038BF0790
:107F300051F7F601A7BEE89507B600FCFDCF97BE46
:107F4000E89526C08437B1F42ED02DD0F82E2BD052
:107F50003CD0F601EF2C8F010F5F1F4F84911BD097
:107F6000EA94F801C1F70894C11CD11CFA94CF0C13
:107F7000D11C0EC0853739F428D08EE10CD085E9AC
:107F80000AD08FE07ACF813511F488E018D01DD067
:107F900080E101D065CF982F8091C00085FFFCCF94
:107FA0009093C60008958091C00087FFFCCF809118
:107FB000C00084FD01C0A8958091C6000895E0E648
:107FC000F0E098E1908380830895EDDF803219F02E
:107FD00088E0F5DFFFCF84E1DECF1F93182FE3DFCA
:107FE0001150E9F7F2DF1F91089580E0E8DFEE27F6
:047FF000FF270994CA
:027FFE00040479
:00000001FF
